:020000040800F2
:100000000000022039200008D1040008D3040008B1
:10001000D5040008D7040008D90400080000000037
:10002000000000000000000000000000DB040008E9
:10003000DD04000800000000DF040008E1040008FF
:1000400089200008892000088920000889200008EC
:1000500089200008892000088920000889200008DC
:1000600089200008892000088920000889200008CC
:1000700089200008892000088920000889200008BC
:1000800089200008892000088920000889200008AC
:10009000892000088920000889200008892000089C
:1000A000892000088920000889200008892000088C
:1000B000892000088920000889200008892000087C
:1000C000892000088920000889200008892000086C
:1000D000892000088920000889200008892000085C
:1000E000892000088920000889200008892000084C
:1000F000892000088920000889200008892000083C
:10010000892000088920000889200008892000082B
:10011000892000088920000889200008892000081B
:10012000892000088920000889200008892000080B
:1001300089200008892000088920000889200008FB
:1001400089200008892000088920000889200008EB
:1001500089200008892000088920000889200008DB
:1001600089200008892000088920000889200008CB
:10017000892000088920000889200008000000006C
:08018000892000088920000815
:1001880053B94AB9002908BF00281CBF4FF0FF31F6
:100198004FF0FF3000F00CB8ADF1080C6DE904CE5B
:1001A80001F09CFFDDF804E0DDE9022304B07047AC
:1001B800704700BF10B5054C237833B9044B13B111
:1001C8000448AFF300800123237010BD48000020CD
:1001D80000000000A023000808B5034B1BB1034929
:1001E8000348AFF3008008BD000000004C00002069
:1001F800A023000872B6FEE700B595B030220021B2
:1002080008A801F03EFF0023039304930593069387
:10021800079301931F4A116C41F080511164126CCD
:1002280002F080520192019A02931B4A116841F42C
:1002380080411160126802F480420292029A0222FE
:10024800089201210B9110210C910E920F93082313
:100258001093A823119312920423139308A800F073
:1002680041FB98B90F2303930223049300230593BA
:100278004FF4A05306934FF480530793052103A826
:1002880000F09AFD20B915B05DF804FBFFF7B2FF46
:10029800FFF7B0FF003802400070004030B583B06F
:1002A80000F0C6FFFFF7A8FF00F03AF800F0B2F838
:1002B80001F0F4FD01F066FE01F016FD154D28462B
:1002C80001F0BEF8144C204601F0BAF80021284687
:1002D80001F0FCFA0021204601F0F8FA17E00020AE
:1002E80001F058FC012301934023009380230B4A1B
:1002F80052F824200021084601F09CFC01F058FC2B
:10030800222000F0C1FF0134E4B20E2CE7D900240A
:10031800FBE700BF10050020C804002000000020F3
:100328002DE9F0438BB000240594069407940894B3
:1003380009940094334B1A6B42F004021A631A6B47
:1003480002F004020092009A01941A6B42F08002B3
:100358001A631A6B02F080020192019A02941A6BD6
:1003680042F001021A631A6B02F001020292029A29
:1003780003941A6B42F002021A631A6B02F002022B
:100388000392039A04941A6B42F010021A631B6BCF
:1003980003F010030493049BDFF870902246202199
:1003A800484600F0AFFEDFF868802246022140464A
:1003B80000F0A8FE144F22464FF48071384600F032
:1003C800A1FE202305930126069607940325089588
:1003D80005A9484600F0A0FD022305930696079458
:1003E800089505A9404600F097FD4FF480730593E2
:1003F80006960794089505A9384600F08DFD0BB0C0
:10040800BDE8F083003802400010024000080240B6
:100418000004024008B50E480E4B03604FF4827387
:1004280043604FF4004383600023C360036143616A
:100438004FF400728261C3610362436283620A23DC
:10044800C36200F00DF900B908BDFFF7D3FEFBE762
:10045800640000200030014000B589B000230393F8
:1004680004930593069307930268154B9A4202D0AA
:1004780009B05DF804FB0021019103F584335A6C3F
:1004880042F480525A645A6C02F480520192019AE2
:1004980002911A6B42F001021A631B6B03F001030D
:1004A8000293029BA023039302230493032306933E
:1004B8000523079303A9034800F02EFDD8E700BFE2
:1004C8000030014000000240FEE7FEE7FEE7FEE7DD
:1004D800FEE770477047704708B500F0C3FE08BDD7
:1004E80082B0002100910B4B5A6C42F480425A644E
:1004F8005A6C02F480420092009A01911A6C42F000
:1005080080521A641B6C03F080530193019B02B064
:10051800704700BF003802402DE9F04782B0054619
:10052800884617461E4600F0A9FE0A9B1B1A03EBD5
:10053800060900F0A3FE8246284B1B68C3F3CB33A1
:1005480009FB03F301932B689C6838EA04040CBF89
:1005580001230023BB423DD0B6F1FF3FF3D000F0AA
:100568008DFEA0EB0A00484507D2019A02B14A461F
:10057800019B013B01939146E5E72A68536823F004
:10058800E00353606B68B3F5827F0BD0AB6AB3F5B9
:10059800005F14D0012385F85130002385F85030CE
:1005A800032018E0AB68B3F5004F02D0B3F5806FB5
:1005B800ECD12A68136823F040031360E6E72A6841
:1005C800136823F4005313602A68136843F4005334
:1005D8001360DFE7002002B0BDE8F0874400002088
:1005E80070B584B004460D46164600920B460122AB
:1005F8000221FFF791FFD0B9174B1B68174AA2FBDE
:1006080003235B0D4FF47A7202FB03F303936368D1
:10061800B3F5827F11D0039B3BB1039B013B03934E
:1006280023689B6813F0800FF5D104B070BD636D2B
:1006380043F0200363650320F7E700962B4600226A
:1006480080212046FFF768FF0028EED0636D43F055
:10065800200363650320E8E744000020819F5E16BD
:1006680000285AD010B50446436A33B94368B3F535
:10067800827F05D00023C36102E000230361436148
:100688000023A36294F85130002B40D0022384F851
:1006980051302268136823F040031360636803F441
:1006A8008273A26802F404421343E26802F400620F
:1006B8001343226902F002021343626902F0010245
:1006C8001343A26902F400721343E26902F038028C
:1006D8001343226A02F080021343A26A02F4005212
:1006E800216813430B60638B03F00403626A02F012
:1006F8001002216813434B602268D36923F4006316
:10070800D36100206065012384F8513010BD84F85E
:1007180050302046FFF7A0FEB8E7012070472DE9CA
:10072800F04383B00446894690461D4600F0A6FD76
:1007380094F85160F6B2012E40F0CC800746B9F12A
:10074800000F00F0C880B8F1000F00F0C48094F8E2
:100758005030012B00F0C380012384F8503003236C
:1007680084F8513000236365C4F83090A4F83480CD
:10077800A4F83680A363A387E38763642364A3682C
:10078800B3F5004F1ED023681A6812F0400F03D14A
:100798001A6842F040021A60E368B3F5006F1CD093
:1007A800636813B1B8F1010F5FD1226B2368127827
:1007B8001A73236B01332363E38E9BB2013B9BB215
:1007C800E38652E02268136823F04003136022682E
:1007D800136843F480431360D5E7636813B1B8F135
:1007E800010F15D1226B23681288DA60236B02335C
:1007F8002363E38E9BB2013B9BB2E38608E000F0E3
:100808003DFDC01BA84202D3B5F1FF3F15D1A5B1EC
:10081800E38E9BB2002B42D023689A6812F0020F35
:10082800EDD0226B1288DA60236B02332363E38EE8
:100838009BB2013B9BB2E386EAE7012384F851307F
:10084800002384F85030032645E0226B12781A738F
:10085800236B01332363B4F836C01FFA8CFC0CF108
:10086800FF3C1FFA8CFCA4F836C0E38E9BB2B3B1F0
:1008780023689A6812F0020FE7D100F0FFFCC01B52
:10088800A84202D3B5F1FF3F01D1002DEDD10123DC
:1008980084F85130002384F8503003261BE03A4690
:1008A80029462046FFF79CFE08B120236365A3680C
:1008B80033B901932368DA6801929B680193019B1D
:1008C800012384F85130002384F85030636D13B944
:1008D800002600E00226304603B0BDE8F083022679
:1008E800F9E70000002800F0E08170B582B0044606
:1008F800036813F0010F3BD09F4B9B6803F00C0378
:10090800042B2CD09C4B9B6803F00C03082B21D0A4
:100918006368B3F5803F4FD0B3F5A02F52D0964B04
:100928001A6822F480321A601A6822F480221A6047
:100938006368002B50D000F0A1FC05468E4B1B6865
:1009480013F4003F14D100F099FC401B6428F5D93A
:100958000320B1E1884B5B6813F4800FD8D0864B35
:100968001B6813F4003F03D06368002B00F09F81DD
:10097800236813F0020F54D07F4B9B6813F00C0FC1
:100988003ED07D4B9B6803F00C03082B33D0E36803
:10099800002B68D0794B01221A6000F06FFC0546E5
:1009A800754B1B6813F0020F54D100F067FC401B15
:1009B8000228F5D903207FE16F4A136843F4803396
:1009C8001360B5E76C4B1A6842F480221A601A6803
:1009D80042F480321A60ABE700F050FC0546664BE3
:1009E8001B6813F4003FC3D000F048FC401B642888
:1009F800F5D9032060E1604B5B6813F4800FC6D122
:100A08005D4B1B6813F0020F03D0E368012B40F025
:100A18005081594A136823F0F803216943EAC10356
:100A28001360236813F0080F42D063696BB3534B0C
:100A38000122C3F8802E00F021FC05464E4B5B6F67
:100A480013F0020F34D100F019FC401B0228F5D92D
:100A5800032031E1484A136823F0F803216943EA87
:100A6800C1031360DDE7454B00221A6000F006FC65
:100A78000546414B1B6813F0020FD2D000F0FEFB75
:100A8800401B0228F5D9032016E13C4B0022C3F88D
:100A9800802E00F0F3FB0546374B5B6F13F0020F17
:100AA80006D000F0EBFB401B0228F5D9032003E138
:100AB800236813F0040F77D02F4B1B6C13F0805F63
:100AC80033D1002301932C4B1A6C42F080521A64E4
:100AD8001B6C03F080530193019B0125284B1B6875
:100AE80013F4807F23D0A368012B34D0052B38D092
:100AF800214B1A6F22F001021A671A6F22F00402C2
:100B08001A67A368002B3DD000F0B8FB06461A4BC5
:100B18001B6F13F0020F46D100F0B0FB801B41F2AF
:100B280088339842F3D90320C6E00025D6E7144A53
:100B3800136843F48073136000F0A0FB0646104B63
:100B48001B6813F4807FCED100F098FB801B02282D
:100B5800F5D90320B0E0084A136F43F00103136787
:100B6800CFE7054B1A6F42F004021A671A6F42F07A
:100B780001021A67C5E700BF00380240000047427B
:100B88000070004000F07AFB0646524B1B6F13F0D2
:100B9800020F08D000F072FB801B41F288339842A4
:100BA800F3D9032088E0EDB9A369002B00F0838016
:100BB800484A926802F00C02082A51D0022B17D03A
:100BC800454B00221A6600F059FB0446414B1B684E
:100BD80013F0007F42D000F051FB001B0228F5D92A
:100BE800032069E03B4A136C23F080531364DBE76E
:100BF800394B00221A6600F041FB0546354B1B684D
:100C080013F0007F06D000F039FB401B0228F5D90D
:100C1800032051E0E369226A1343626A43EA8213BC
:100C2800A26A5208013A43EA0243E26A43EA0263CB
:100C3800284A5360284B01221A6600F01FFB04461D
:100C4800244B1B6813F0007F06D100F017FB001B34
:100C58000228F5D903202FE000202DE000202BE00A
:100C6800012B2BD01B4B5B6803F48001E269914296
:100C780026D103F03F02216A8A4223D1616A47F6EE
:100C8800C0721A40B2EB811F1ED103F44031A26A30
:100C98005208013AB1EB024F18D103F07063E26ACF
:100CA800B3EB026F14D1002006E001207047012049
:100CB80002E0012000E0002002B070BD0120FBE747
:100CC8000120F9E70120F7E70120F5E70120F3E724
:100CD8000120F1E7003802400000474208B5334BD5
:100CE8009B6803F00C03042B5BD0082B5BD12F4BC4
:100CF8005A6802F03F025B6813F4800F2CD02B4B2C
:100D08005868C0F388104FEA401CBCEB000C6EEB2F
:100D18000E0E4FEA8E1343EA9C634FEA8C11B1EB37
:100D28000C0163EB0E03DB0043EA5173C90011EBBE
:100D3800000C43F10003590200234FEA4C2041EA1A
:100D4800DC51FFF71DFA194B5B68C3F3014301330C
:100D58005B00B0FBF3F008BD144B5868C0F3881073
:100D68004FEA401CBCEB000C6EEB0E0E4FEA8E13E4
:100D780043EA9C634FEA8C11B1EB0C0163EB0E0361
:100D8800DB0043EA5173C90011EB000C43F1000387
:100D9800990200234FEA8C2041EA9C51FFF7F0F9B1
:100DA800D1E70348D7E70348D5E700BF003802403A
:100DB80000127A000024F400002800F09B8070B52F
:100DC8000D4604464F4B1B6803F007038B4208D2BD
:100DD800CBB24C4A1370136803F007038B4240F000
:100DE8008B80236813F0020F17D013F0040F04D080
:100DF800454A936843F4E0539360236813F0080F5F
:100E080004D0414A936843F4604393603E4A936830
:100E180023F0F003A1680B439360236813F0010FDC
:100E280032D06368012B21D09A1E012A25D9364A6F
:100E3800126812F0020F61D033498A6822F0030267
:100E480013438B6000F01AFA06462F4B9B6803F099
:100E58000C036268B3EB820F16D000F00FFA801B08
:100E680041F288339842F0D9032042E0264A1268BA
:100E780012F4003FE0D101203BE0234A126812F04F
:100E8800007FD9D1012034E01E4B1B6803F0070313
:100E9800AB4207D9EAB21B4B1A701B6803F0070371
:100EA800AB422DD1236813F0040F06D0164A93687D
:100EB80023F4E053E1680B439360236813F0080FB1
:100EC80007D0114A936823F46043216943EAC103B8
:100ED8009360FFF703FF0C4B9B68C3F303130B4AA4
:100EE800D35CD8400A4B18600A4B186800F07AF9AE
:100EF800002070BD012070470120FAE70120F8E7C3
:100F08000120F6E7003C024000380240B85F0008C4
:100F1800440000204000002000230F2B00F2E9804D
:100F280070B582B065E085684FEA430E032404FA81
:100F38000EF425EA0405CC6804FA0EF42C43846008
:100F4800446824EA02044A68C2F300129A40224321
:100F580042605CE0DC08083450F8242003F0070500
:100F6800AD004FF00F0E0EFA05FE22EA0E0E0A69CA
:100F7800AA4042EA0E0240F824205CE0072200E082
:100F8800002202FA0EF22A4302345A4D45F8242070
:100F9800594A94686FEA0C0224EA0C054E6816F464
:100FA800801F01D04CEA0405534CA560E46802EAAE
:100FB80004054E6816F4001F01D04CEA04054E4C97
:100FC800E560646802EA04054E6816F4003F01D043
:100FD8004CEA0405484C6560246822404D6815F4C5
:100FE800803F01D04CEA0402434C226001330F2BAE
:100FF8007DD801229A400C6804EA020C32EA040403
:10100800F4D14C6804F00304013C012C8BD94A68E4
:1010180002F00302032A09D0C4685D000322AA4033
:1010280024EA02048A68AA402243C2604A6802F09D
:101038000302022A8ED004684FEA430E032202FA02
:101048000EF224EA02044A6802F0030202FA0EF2DF
:10105800224302604A6812F4403FC7D0002201923E
:10106800264A546C44F480445464526C02F480421E
:101078000192019A9C08A51C1E4A52F8255003F0BB
:10108800030E4FEA8E0E0F2202FA0EF225EA02052F
:101098001B4A90423FF474AF02F5806290421AD026
:1010A80002F58062904218D002F58062904216D014
:1010B80002F58062904214D002F58062904212D00C
:1010C80002F58062904210D002F5806290423FF4AF
:1010D80055AF082255E7012253E7022251E70322C0
:1010E8004FE704224DE705224BE7062249E702B005
:1010F80070BD704700380140003C01400038024094
:10110800000002400AB1816170470904816170479B
:10111800002808DB0901C9B200F1604000F5614010
:1011280080F80013704700F00F000901C9B2014BA5
:101138001954704714ED00E000B500F00700C0F145
:10114800070CBCF1040F28BF4FF0040C031D062B3D
:101158000FD9C31E4FF0FF3E0EFA0CF021EA000132
:1011680099400EFA03FE22EA0E0241EA02005DF8F7
:1011780004FB0023EEE70000074AD36823F4E0638A
:101188001B041B0C000200F4E060034343F0BF6340
:1011980043F40033D360704700ED00E010B5044617
:1011A800054BD868C0F30220FFF7C6FF014620466A
:1011B800FFF7AEFF10BD00BF00ED00E00138B0F151
:1011C800807F0BD24FF0E0235861054AF02182F866
:1011D80023100020986107221A6170470120704788
:1011E80000ED00E010B504460E4B1A784FF47A7300
:1011F800B3FBF2F30C4A1068B0FBF3F0FFF7DEFF25
:1012080068B90F2C01D901200AE0002221464FF0CD
:10121800FF30FFF7C3FF054B1C60002000E00120F2
:1012280010BD00BF3C00002044000020400000200A
:1012380008B50B4B1A6842F400721A601A6842F437
:1012480080621A601A6842F480721A600320FFF7FD
:1012580093FF0F20FFF7C6FFFFF742F9002008BDF4
:10126800003C0240034A1168034B1B780B4413608F
:10127800704700BFBC0000203C000020014B1868EC
:10128800704700BFBC00002038B50446FFF7F6FFE2
:101298000546B4F1FF3F02D0044B1B781C44FFF70E
:1012A800EDFF401BA042FAD338BD00BF3C00002030
:1012B80030B4036A026A22F0010202624268846959
:1012C80024F0730C0C6844EA0C0423F0020C8B68BD
:1012D80043EA0C03114DA84203D005F58065A842E6
:1012E80005D123F00803CD682B4323F004030B4DED
:1012F800A84203D005F58065A84207D122F44072C0
:101308004D6945EA020C8A6942EA0C02426084612E
:101318004A684263036230BC704700BF0000014066
:1013280030B4036A026A22F4807202624268C469B5
:1013380024F0730C0C6844EA0C0523F400738C68E1
:1013480043EA0423114CA04203D004F58064A04270
:1013580006D123F40063CC6843EA042323F48063B2
:101368000A4CA04203D004F58064A04207D122F4BD
:1013780040524C6942EA04128C6942EA0412426003
:10138800C5614A68C263036230BC7047000001400F
:1013980030B4036A026A22F4805202624468C26965
:1013A80022F4E6420D6842EA052223F400538D68D0
:1013B80043EA0533094DA84203D005F58065A842E4
:1013C80004D124F480444D6944EA85144460C26120
:1013D8004A680264036230BC704700BF00000140E5
:1013E80010B4036A046A24F001040462846924F0D6
:1013F800F00C4CEA021223F00A030B4382610362E9
:101408005DF8044B704710B4036A046A24F01004B2
:101418000462846924F4704C4CEA023223F0A0037D
:1014280043EA0113826103625DF8044B70478368E5
:1014380023F070030B4343F00703836070470000F9
:1014480090F83D30DBB2012B32D1022380F83D30D9
:101458000368194A934220D0B3F1804F1DD0A2F5FA
:101468007C42934219D002F58062934215D002F56E
:101478008062934211D002F5784293420DD002F572
:101488007052934209D0A2F59432934205D01A685B
:1014980042F001021A60002070479A6802F00702C1
:1014A800062A07D01A6842F001021A600020704725
:1014B800012070470020704700000140704700007D
:1014C8000368344A904212D0B0F1804F0FD0A2F591
:1014D8007C4290420BD002F58062904207D002F520
:1014E8008062904203D002F57842904203D123F003
:1014F80070034A681343274A90422AD0B0F1804FBC
:1015080027D0A2F57C42904223D002F58062904217
:101518001FD002F5806290421BD002F578429042BB
:1015280017D002F57052904213D002F580629042B3
:101538000FD002F5806290420BD0A2F5983290420B
:1015480007D002F58062904203D002F58062904293
:1015580003D123F44073CA68134323F080034A6914
:10156800134303608B68C3620B688362094B98421C
:1015780003D003F58063984201D10B69036301230B
:101588004361036913F0010F03D0036923F00103DA
:10159800036170470000014040B310B5044690F85D
:1015A8003D30F3B1022384F83D30214651F8040B55
:1015B800FFF786FF012384F8463084F83E3084F82C
:1015C8003F3084F8403084F8413084F8423084F861
:1015D800433084F8443084F8453084F83D300020A6
:1015E80010BD80F83C3000F0E5FBDBE701207047D8
:1015F80040B310B5044690F83D30F3B1022384F8A7
:101608003D30214651F8040BFFF75AFF012384F8B7
:10161800463084F83E3084F83F3084F8403084F80F
:10162800413084F8423084F8433084F8443084F8F8
:10163800453084F83D30002010BD80F83C30FFF77D
:101648003DFFDBE70120704730B4036A026A22F0ED
:10165800100202624468826922F4E6420D6842EA96
:10166800052223F020038D6843EA0513114DA84293
:1016780003D005F58065A84206D123F08003CD6824
:1016880043EA051323F040030A4DA84203D005F5A9
:101698008065A84207D124F440644D6944EA850472
:1016A8008D6944EA8504446082614A688263036202
:1016B80030BC70470000014038B590F83C30012B31
:1016C80066D004460D46012380F83C300C2A5AD8CF
:1016D800DFE802F0075959591B59595930595959D6
:1016E80044000068FFF7E4FD2268936943F00803AB
:1016F80093612268936923F00403936122689369D4
:1017080029690B43936100203EE00068FFF79CFFC6
:101718002268936943F4006393612268936923F410
:101728008063936122689369296943EA012393617D
:10173800002029E00068FFF7F3FD2268D36943F031
:101748000803D3612268D36923F00403D3612268B4
:10175800D36929690B43D361002015E00068FFF7BE
:1017680017FE2268D36943F40063D3612268D36902
:1017780023F48063D3612268D369296943EA01238A
:10178800D361002000E00120002384F83C3038BDFC
:101798000220FCE710B4846824F47F4C42EA032258
:1017A8000A4342EA0C0282605DF8044B704790F8E5
:1017B8003C30012B78D010B50446012380F83C302A
:1017C800022380F83D300268936823F47F4323F0B6
:1017D800770393600B68602B4CD023D8402B54D0F0
:1017E80011D8202B03D00AD80BB1102B05D11946DC
:1017F8002068FFF71CFE002028E0012026E0302B9F
:10180800F5D0012022E0502B0AD1CA684968006847
:10181800FFF7E6FD50212068FFF709FE002015E0DC
:10182800012013E0B3F5805F3AD0B3F5005F14D020
:10183800702B37D1CB684A6889680068FFF7AAFF20
:101848002268936843F0770393600020012384F8AB
:101858003D30002384F83C3010BDCB684A68896865
:101868000068FFF797FF2268936843F4804393600A
:101878000020EBE7CA6849680068FFF7C4FD6021EB
:101888002068FFF7D4FD0020E0E7CA6849680068CF
:10189800FFF7A6FD40212068FFF7C9FD0020D5E726
:1018A8000020D3E70120D1E70220704701F01F0193
:1018B8004FF0010C0CFA01FC036A23EA0C030362E3
:1018C800036A8A40134303627047000010B5044658
:1018D8000846002942D194F83E30DBB2013B18BFDC
:1018E8000123002B6ED1002851D1022384F83E3009
:1018F800012201462068FFF7D9FF2368334A934243
:1019080003D002F58062934203D15A6C42F400423C
:101918005A6423682D4A934249D0B3F1804F46D088
:10192800A2F57C42934242D002F5806293423ED0B7
:1019380002F5806293423AD002F57842934236D05B
:1019480002F57052934232D0A2F5943293422ED0CF
:101958001A6842F001021A60002032E0042908D017
:1019680008290DD094F84130DBB2013B18BF0123A0
:10197800B7E794F83F30DBB2013B18BF0123B0E76B
:1019880094F84030DBB2013B18BF0123A9E70428D3
:1019980005D0082807D0022384F84130A8E702239D
:1019A80084F83F30A4E7022384F84030A0E79A681F
:1019B80002F00702062A07D01A6842F001021A60EC
:1019C800002010BD0120FCE70020FAE700000140DC
:1019D80090F83C20012A3DD010B40346012280F83B
:1019E8003C20022280F83D2002685068946820F06C
:1019F800700C086840EA0C0050601A681648824269
:101A08001AD0B2F1804F17D0A0F57C40824213D093
:101A180000F5806082420FD000F5806082420BD0D2
:101A280000F57840824207D000F57050824203D01A
:101A3800A0F59430824204D124F0800449682143FF
:101A48009160012283F83D20002083F83C005DF876
:101A5800044B70470220704700000140024690F88E
:101A68003C30012B21D0012380F83C30CB6823F493
:101A780040738868034323F480634868034323F46E
:101A880000630868034323F480530869034323F47D
:101A980000534869034323F48043C9690B43116821
:101AA8004B64002082F83C00704702207047000019
:101AB800034AD2F8883043F47003C2F8883070477C
:101AC80000ED00E010B501224FF480710A48FFF7DD
:101AD80019FB0A4C002220212046FFF713FB0A209D
:101AE800FFF7D2FB012220212046FFF70BFB0A203B
:101AF800FFF7CAFB10BD00BF0010024000080240FB
:101B080010B582B08DF807000D4C00224FF480719B
:101B18002046FFF7F7FA002202210A48FFF7F2FAF7
:101B28004FF0FF3301220DF107010748FEF7F7FDDB
:101B380001224FF480712046FFF7E4FA02B010BD8D
:101B480000100240000402406400002070B5044602
:101B58000D460D4E00224FF480713046FFF7D2FA41
:101B6800012202210948FFF7CDFA4FF0FF33AAB24C
:101B780021460748FEF7D3FD01224FF48071304615
:101B8800FFF7C0FA70BD00BF001002400004024019
:101B98006400002008B530B900214FF48062034882
:101BA80000F06FFA08BDFF21F7E700BFC80000206A
:101BB80010B5002412E0A4F15000C0B2FFF7A0FF56
:101BC8000220FFF79DFF1020FFF79AFF80210548AC
:101BD80000EBC410FFF7BAFF0134E4B2072CEAD9CE
:101BE80010BD00BFC800002010F0800F1FD13F2992
:101BF8001DD810B4012A0FD0CB0800EBC3100C4C31
:101C0800225C01F0070101238B40DB435BB21340E8
:101C180023545DF8044B7047CB0800EBC310044C09
:101C2800235C01F007018A4013432354F1E770470E
:101C3800C80000202DE9F04F83B091461E469DF85C
:101C480030209DF8343010F0800F31D182468B4619
:101C580006F107084FEAD8083F2929D800273D464A
:101C6800019200931FE0E30808FB073319F80350BB
:101C780015F0800F09D10134E4B2B4420DD214F04A
:101C8800070FF0D06D00EDB2F2E704EB0A00009AFE
:101C98005946C0B2FFF7A8FFEDE70137FFB20BF1D5
:101CA80001015FFA81FB019B9F4201D20024E4E716
:101CB80003B0BDE8F08F10B504468120FFF720FF80
:101CC8002046FFF71DFF10BD08B530B1054B0122B6
:101CD8005A71AF20FFF714FF08BD024B00225A715A
:101CE800AE20F7E7C000002008B5FFF7EBFE642040
:101CF800FFF7CAFA0020FFF7E7FF2020FFF700FFF1
:101D08000020FFF7FDFEB020FFF7FAFEC820FFF71E
:101D1800F7FE0020FFF7F4FE1020FFF7F1FE402049
:101D2800FFF7EEFEFF20FFF7C6FFA120FFF7E8FE52
:101D3800A620FFF7E5FEA820FFF7E2FE3F20FFF709
:101D4800DFFEA420FFF7DCFED320FFF7D9FE00203A
:101D5800FFF7D6FED520FFF7D3FEF020FFF7D0FE21
:101D6800D920FFF7CDFE2220FFF7CAFEDA20FFF7C1
:101D7800C7FE1220FFF7C4FEDB20FFF7C1FE2020BC
:101D8800FFF7BEFE8D20FFF7BBFE1420FFF7B8FE5D
:101D98000120FFF799FF0020FFF7FCFEFFF708FF7F
:101DA800034B00221A805A8001221A7108BD00BF15
:101DB800C000002082B00368104A934204D0104A41
:101DC80093420ED002B07047002300930D4B5A6C1B
:101DD80042F001025A645B6C03F001030093009B1C
:101DE800F0E700230193074B1A6C42F002021A64D1
:101DF8001B6C03F002030193019BE3E70000014021
:101E0800000400400038024000B589B00023039365
:101E1800049305930693079303681B4A934205D0DE
:101E28001A4A93421AD009B05DF804FB00230193C3
:101E3800174B1A6B42F010021A631B6B03F0100366
:101E48000193019B4FF4007303930223049301232E
:101E5800079303A90F48FFF75FF8E4E7002302930D
:101E68000B4B1A6B42F001021A631B6B03F0010360
:101E78000293029B4023039302230493079303A92D
:101E88000548FFF749F8CEE700000140000400408C
:101E980000380240001002400000024010B596B021
:101EA8000024129413941494159410941194099482
:101EB8000A940B940C940D940E940F9420222146AE
:101EC80001A800F0DEF82D482D4B0360A7234360DE
:101ED800846042F20F73C360046144618461FFF758
:101EE8005BFB002837D14FF48053129312A9234883
:101EF800FFF75DFC002831D12048FFF779FB002867
:101F08002FD100231093119310A91C48FFF760FDEF
:101F180050BB6023099300220A920B920C920D92F7
:101F28000E920F9209A91548FFF7C6FBF8B90023CE
:101F3800019302930393049305934FF4005206927E
:101F4800089301A90D48FFF789FD98B90B48FFF7D9
:101F58005BFF16B010BDFEF74DF9C4E7FEF74AF96E
:101F6800CAE7FEF747F9CCE7FEF744F9D1E7FEF7F1
:101F780041F9DCE7FEF73EF9E8E700BF100500206D
:101F88000000014000B58FB000230A930B930C9317
:101F98000D93089309930193029303930493059374
:101FA800069307932048214A0260A7224260836073
:101FB80042F20F72C26003618361FFF7EDFA20BB42
:101FC8004FF480530A930AA91748FFF7F0FBF8B9B2
:101FD8001548FFF70DFBF0B900230893099308A9EA
:101FE8001148FFF7F5FCC8B960230193002202925B
:101FF8000392059201A90C48FFF75EFB88B90A48CD
:10200800FFF702FF0FB05DF804FBFEF7F3F8D7E720
:10201800FEF7F0F8DCE7FEF7EDF8DDE7FEF7EAF8A3
:10202800E2E7FEF7E7F8EAE7C8040020000400400A
:10203800DFF834D0FFF73CFD0C480D490D4A00236A
:1020480002E0D458C4500433C4188C42F9D30A4A65
:102058000A4C002301E013600432A242FBD300F0D3
:1020680019F8FEF71BF97047000002200000002055
:1020780048000020D85F00084800002058050020CC
:10208800FEE702440346934200D1704703F8011B60
:10209800F9E7000070B50D4D0D4C641BA410002627
:1020A800A64209D10B4D0C4C00F076F9641BA41024
:1020B8000026A64205D170BD55F8043B9847013665
:1020C800EEE755F8043B98470136F2E7D05F000881
:1020D800D05F0008D05F0008D45F00082DE9F04702
:1020E800089D0E4604460F46002B4AD194468C455F
:1020F800B2FA82F260D942B1C2F12003974020FAC5
:1021080003F30CFA02FC1F4394404FEA1C4E1FFADB
:102118008CF6B7FBFEF1230C0EFB117743EA07435D
:1021280001FB06F098420AD91CEB030301F1FF37C3
:1021380080F01581984240F21281023963441B1ADB
:10214800A4B2B3FBFEF00EFB103344EA034400FBD9
:1021580006F6A6420AD91CEB040400F1FF3380F00E
:102168000081A64240F2FD806444023840EA014002
:10217800A41B00211DB1D4400023C5E90043BDE8DC
:10218800F0878B4205D90DB1C5E900010021084649
:10219800F5E7B3FA83F1002946D1B34202D382426C
:1021A80000F2F580841A66EB030201201746002D21
:1021B800E5D0C5E90047E2E7002A40F09380A1EBAB
:1021C8000C034FEA1C471FFA8CFE0121B3FBF7F6FC
:1021D80007FB1630230C43EA00430EFB06F0984237
:1021E80008D91CEB030306F1FF3802D2984200F22B
:1021F800D08046461B1AA4B2B3FBF7F007FB103396
:1022080044EA03440EFB00FEA64508D91CEB04046F
:1022180000F1FF3302D2A64500F2B6801846A4EBBF
:102228000E0440EA0640A5E7C1F120078B4022FAD8
:1022380007FC4CEA030C06FA01FE20FA07F426FA1A
:1022480007F344EA0E0400FA01F84FEA1C404FEA8B
:102258001449B3FBF0FE1FFA8CF600FB1E3349EA63
:1022680003430EFB06F9994502FA01F20BD91CEB60
:1022780003030EF1FF3A80F08580994540F2828091
:10228800AEF1020E6344A3EB0909A4B2B9FBF0F363
:1022980000FB139944EA094403FB06F6A64208D951
:1022A8001CEB040403F1FF3068D2A64266D9023B56
:1022B800644443EA0E40A41BA0FB02E6B442734602
:1022C800B14652D34FD05DB1B8EB030264EB0904B9
:1022D80004FA07F722FA01F31F43CC40C5E900745A
:1022E80000214CE7C2F1200120FA01F30CFA02FCAC
:1022F80026FA01F1964033434FEA1C471FFA8CFE39
:10230800B1FBF7F007FB1016190C41EA064100FB78
:102318000EF68E4204FA02F408D91CEB010100F112
:10232800FF382DD28E422BD902386144891B9BB2CB
:10233800B1FBF7F607FB161143EA014306FB0EF162
:10234800994208D91CEB030306F1FF3814D29942CD
:1023580012D9023E63445B1A46EA004136E7394621
:10236800EDE6184602E7F045ADD2BEEB020366EB98
:102378000C060138B146A6E74646ECE7034698E75F
:102388004046D3E7D6467EE76444023847E7084626
:102398000DE7023E63442DE7F8B500BFF8BC08BC62
:1023A8009E467047F8B500BFF8BC08BC9E4670470B
:1023B800FFFFFFFFFFFFFFFFFFFFFFFFFFFFFFFF25
:1023C800FFFFFFFFC7F8FFFFFFFFFFFFFFFFFFFF54
:1023D800FFFFFFFFC3F8FFFFFFFFFFFFFFFFFFFF48
:1023E800FFFFFFFFC7F8FFFFFFFFFFFFFFFFFFFF34
:1023F800FFFFFFFFFF1FFFFFFFFFFFFFFFFFFFFFC5
:10240800FFFFFFFFFE1FFFFFFFFFFFFFFFFFFFFFB5
:102418007FFFFFFFFE1FFFBFFFFFFFFFFFFFFFFF65
:102428000000FFFFF8C0003FFFFFFFFFFFFFFFFFB7
:102438007FFCFFFFFFFFFF3FFFFFFFFFFFFFFFFFE7
:102448007FFE000003FFFFC00000000000FFFFFF49
:102458007FFF000003FFFFC00000000000FFFFFF38
:102468007FFFFFFFFFFFF7C00000000000FFFFFF36
:102478007FFFFFFFFFFFB70000000000001FFFFF06
:102488007FFFFFFFFFFFF70000000000001FFFFFB6
:102498000000FFFFF800070000000000001FFFFF1A
:1024A80000007FFFF000070000020000001FFFFF90
:1024B800000000000000070000000000001FFFFFF0
:1024C800000000000000070000000000001FFFFFE0
:1024D800000000000000070000000000001FFFFFD0
:1024E800000000000000070000000000001FFFFFC0
:1024F800000000000000070000000078001FFFFF38
:102508000000000000000700000000F8401FFFFF67
:102518000000000000000700000000F8001FFFFF97
:10252800000000000000030000000306001FE0FF99
:10253800000000000000030000000707001FE0FF84
:10254800000000000000030000000700001F00FF5B
:10255800000000000000030000000700E01F00FF6B
:10256800000000000000030000000700C01F00FF7B
:102578000000000000000300000007001FF800FF33
:102588000000000000000300000007001FF800FF23
:102598000000000000000300000007001FF800FF13
:1025A800000000000000070000000700000000FF16
:1025B800000000000000070000000700000000FF06
:1025C8000000000000000F00000000000000003FB5
:1025D800000000000000FF00000218000000001FBB
:1025E800000000000000FF00000018000000001FAD
:1025F80000000000001F070000001800C000181F9E
:1026080000000000001F070000001800E000181F6D
:1026180000000000001F070000001800E0001C1F59
:102628000000000000E0070000001807E018FC1F89
:102638000000000000E0070000001807E018F81F7D
:102648000000000007C3E700000018024018081F38
:10265800000000000707FF00004018000000001FEE
:10266800000000000707FF00000018000000001F1E
:10267800000000000707070000001800C0C0E01FA6
:10268800000000000707070040001800E0E0E01F16
:10269800000000000707070000001800E0E0E03F26
:1026A8000000000001FC070000000700FFFFE0FF3A
:1026B8000000000001FC070000000700FFFFE0FF2A
:1026C8000000000000FC0700000000407FFBC1FF85
:1026D80000000000000007C0000000E0000007FF45
:1026E8000000000000001FC0000000E0000007FF1D
:1026F800000000000000381FFFFFFFFFFFFFFFFF83
:10270800000000000000383FFFFFFFFFFFFFFFFF52
:102718007FFF000007FFF83FFFFF873FFFFFFFFF36
:10272800FFFF800007FFF81FE0FF03181FE0FFFF0F
:10273800FFFF000007FFF81FE0FF03181FC0FFFF9F
:10274800FFFFFFFFFFFFFC3FE0FF00181FE1FFFF57
:10275800FFFFFFFFFFFFFFFFFFFFF8FFFFFFFFFF88
:10276800FFFFFFFFFFFFFFFFFFFFF8FFFFFFFFFF78
:10277800FFFFFFFFFFFFFFFFFFFFF8FFFFFFFFFF68
:10278800FFFFFFFFFFFFFFFFFFFFF8FFFFFFFFFF58
:10279800FFFFFFFFFFFFFFFFFFFFF8FFFFFFFFFF48
:1027A800FFFFFFFFFFFFFFFFFFFFFFFFFFFFFFFF31
:1027B800FFFFFFFFFFFFFFFFFFFFFFFFFFFFFFFF21
:1027C800FFFFFFFFFFFFFFFF1FFFFFFFFFFFFFFFF1
:1027D800FFFFFFFFFFFFFFFF1FFFFFFFFFFFFFFFE1
:1027E800FFFFFFFFFFFFFFFF1FFFFFFFFFFFFFFFD1
:1027F800FFFFFFFFFFFFFFFF1FFFFFFFFFFFFFFFC1
:10280800FFFFFFFFFFFFFFFE1FFFFFFFFFFFFFFFB1
:102818007FFDFFFFFFFFFFBF3FFFFFFFFFFFFFFF42
:102828000000FFFFF800003FFFFFFFFFFFFFFFFF73
:102838007FFCFFFFFFFFFF3FFFFFFFFFFFFFFFFFE3
:102848007FFE000003FFFFC00000000000FFFFFF45
:102858007FFF000003FFFFC00000000000FFFFFF34
:102868007FFFFFFFFFFFF7C00000000000FFFFFF32
:102878007FFFFFFFFFFFF70000000000001FFFFFC2
:102888007FFFFFFFFFFFF70000000000001FFFFFB2
:102898000000FFFFF800070000000000001FFFFF16
:1028A80000007FFFF000070000020000001FFFFF8C
:1028B800000000000000070000000000001FFFFFEC
:1028C800000000000000070000000000001FFFFFDC
:1028D800000000000000070000000000001FFFFFCC
:1028E800000000000000070000000000001FFFFFBC
:1028F800000000000000070000000078001FFFFF34
:102908000000000000000700000000F8401FFFFF63
:102918000000000000000700000000F8001FFFFF93
:10292800000000000000030000000306001FE0FF95
:10293800000000000000030000000707001FE0FF80
:10294800000000000000030000000700001F00FF57
:10295800000000000000030000000700E01F00FF67
:10296800000000000000030000000700C01F00FF77
:102978000000000000000300000007001FF800FF2F
:102988000000000000000300000007001FF800FF1F
:102998000000000000000300000007001FF800FF0F
:1029A800000000000000070000000700000000FF12
:1029B800000000000000070000000700000000FF02
:1029C8000000000000000F00000000000000003FB1
:1029D8000000000000001F00000218000000001F97
:1029E8000000000000003F00000018000000001F69
:1029F80000000000001FFF0000001800C000181FA2
:102A080000000000001FFF0000001800E000181F71
:102A180000000000001FFF0000001800E000181F61
:102A28000000000007E0070000001807E018F81F82
:102A38000000000007E0070000001807E038F81F52
:102A48000000000007C06F00000018024018481F6F
:102A5800000000000700FF00004018000000001FF1
:102A6800000000000700FF00000018000000001F21
:102A78000000000001FFE70000001800E0C0C01FD0
:102A88000000000000FFE70040001800E0E0E01F41
:102A98000000000000FFE70000001800E0E0E01F71
:102AA800000000000000070000000700FFFFE0FF33
:102AB800000000000000070000000700FFFFE0FF23
:102AC8000000000000000700000000C07FFFC1FFF9
:102AD80000000000000007C0000000E0000007FF41
:102AE80000000000000007C0000000E0000007FF31
:102AF800000000000000071FFFFFFFFFFFFFFFFFB0
:102B0800000000000000073FFFFFFFFFFFFFFFFF7F
:102B18007FFF000007FFFF1FFFFFFFFFFF3FFFFFD3
:102B2800FFFF800007FFFF07F81FFFFF07181FFFC1
:102B3800FFFF000007FFFF07F81FFFFF07181FFF31
:102B4800FFFFFFFFFFFFFF07F83FFFFF071C3FFFE7
:102B5800FFFFFFFFFFFFFFFFFFFFFFFFFFFFFFFF7D
:102B6800FFFFFFFFFFFFFFFFFFFFFFFFFFFFFFFF6D
:102B7800FFFFFFFFFFFFFFFFFFFFFFFFFFFFFFFF5D
:102B8800FFFFFFFFFFFFFFFFFFFFFFFFFFFFFFFF4D
:102B9800FFFFFFFFFFFFFFFFFFFFFFFFFFFFFFFF3D
:102BA800FFFFFFFFFFFFFFFFFFFFFFFFFFFFFFFF2D
:102BB800FFFFFFFFFFFFFFFFFFFFF8FFFFFFFFFF24
:102BC800FFFFFFFFFFFFFFFFFFFFF8FFFFFFFFFF14
:102BD800FFFFFFFFFFFFFFFFFFFFF8FFFFFFFFFF04
:102BE800FFFFFFFFFFFFFFFFFFFFF8FFFFFFFFFFF4
:102BF800FFFFFFFFFFFFFFFFFFFFFFFFFFFFFFFFDD
:102C0800FFFFFFFFFFFFFFFFFFFFFFFFFFFFFFFFCC
:102C1800FFFFFFFFFFFFFFE00000000000FFFFFFD6
:102C2800FFF800001FFFFFC00000000000FFFFFFCB
:102C3800FFFDFFFF9FFFFFC00000000000FFFFFF38
:102C48000007FFFFC000070000000000001FFFFF93
:102C58000007FFFFE000070000000000001FFFFF63
:102C68007FFFFFFFFFFFF70000000000001FFFFFCE
:102C78007FFFFFFFFFFFF70000000000001FFFFFBE
:102C88007FFFFFFFFFFFF70000020000001FFFFFAC
:102C98007FF800001FFFF70000000000001FFFFF83
:102CA8007FF800001FFFF70000000000001FFFFF73
:102CB800000000000000070000000000001FFFFFE8
:102CC800000000000000070000000078001FFFFF60
:102CD8000000000000000700000000F8401FFFFF90
:102CE8000000000000000700000000F8001FFFFFC0
:102CF800000000000000070000000202001FE0FFC3
:102D0800000000000000070000000707001FE0FFA8
:102D1800000000000000070000000707001FC0FFB8
:102D2800000000000000070000000700C01F00FFAF
:102D3800000000000000070000000700C01F00FF9F
:102D48000000000000F0030000000700003C00FF46
:102D58000000000000F80300000007001FF800FF53
:102D68000000000000F80300000007001FF800FF43
:102D7800000000000306030000000700000000FF39
:102D8800000000000707030000000700000000FF24
:102D9800000000000707070000000300000000FF14
:102DA800000000000707FF00000018000000001FD7
:102DB800000000000707FF00000018000000001FC7
:102DC8000000000000C0070000001800C000181F25
:102DD8000000000000E0070200001800E000181FD3
:102DE8000000000000E0070000001800E000181FC5
:102DF80000000000001F070000001803E018F81F7B
:102E080000000000001F070000001807E038F81F46
:102E180000000000001F070000001807E018F81F56
:102E2800000000000000FF00000018000000001F64
:102E3800000000000000FF00004018000000001F14
:102E4800000000000000FF00000018004040C01F04
:102E5800000000000000070000001800E0C0E01FAC
:102E6800000000000000070000001800E0E0E01F7C
:102E7800000000000000070000000700FFFFE0FF5F
:102E8800000000000000070000000700FFFFE0FF4F
:102E9800000000000000070000000200FFFFC0FF64
:102EA80000000000000007C0000000E0000007FF6D
:102EB80000000000000007C0000000E0000007FF5D
:102EC80000000000000017C0000000EBC669C7FF43
:102ED800000000000000381FFFFFFFFFFFFFFFFF9B
:102EE800000000000000381FFFFFFFFFFFFFFFFF8B
:102EF800000000000000383FE0FFFFF81FE0FFFF80
:102F0800000000000000381FE0FFFFF81FC0FFFFAF
:102F18000007FFFFE0003C3FE0FFFFF81FE0FF3F36
:102F28000007FFFFE0003FFFFFFFFFFFFFFFFF1F5E
:102F38000007FFFFE0003FFFFFFFFFFFFFFFFF1F4E
:102F4800FFFFFFFFFFFFFFFFFFFFFFFFFFFFFF1F69
:102F5800FFFFFFFFFFFFFFFFFFFFFFFFFFFFFFFF79
:102F6800FFFFFFFFFFFFFFFFFFFFFFFFFFFFFFFF69
:102F7800FFFFFFFFFFFFFFFFFFFFFFFFFFFFFFFF59
:102F8800FFFFFFFFFFFFFFFFFFFFFFFFFFFFFFFF49
:102F9800FFFFFFFFFFFFFFFFFFFFFFFFFFFFFFFF39
:102FA800FFFFFFFFFFFFFFFFFFFFFFFFFFFFFFFF29
:102FB800FFFFFFFFFFFFFFFFFFFFFFFFF8FFFFFF20
:102FC800FFFFFFFFFFFFFFFFFFFFFFFFF8FFFFFF10
:102FD800FFFFFFFFFFFFFFFFFFFFFFFFFFFFFFFFF9
:102FE800FFFFFFFFFFFFFFFFFFFFFFFFFFFFFFFFE9
:102FF800FFFFFFFFFFFFFFFFFFFFFFFFFFFFFFFFD9
:10300800FFFFFFFFFFFFFFFFFFFFFFFFFFFFFFFFC8
:10301800FFFFFFFFFFFFFFE00000000000FFFFFFD2
:10302800FFF800001FFFFFC00000000000FFFFFFC7
:10303800FFFFAFB79FFFFFC00000000000FFFFFFCA
:103048000003FFFFC000070000000000001FFFFF93
:103058000007FFFFC000070000000000001FFFFF7F
:103068007FFFFFFFFFFFF70000000000001FFFFFCA
:103078007FFFFFFFFFFFF70000000000001FFFFFBA
:103088007FFFFFFFFFFFF70000020000001FFFFFA8
:103098007FF800001FFFF70000000000001FFFFF7F
:1030A8007FF800001FFFF70000000000001FFFFF6F
:1030B80012C000000400070000000000001FFFFF0E
:1030C8000000000000000700000003C0001FFFFF11
:1030D8000000000000000700000007E0401FFFFF9D
:1030E8000000000000000700000003C0001FFFFFF1
:1030F800000000000000070000001818001F07FF6C
:10310800000000000000070000001818001F07FF5B
:10311800000000000000070000001818001F07FF4B
:103128000000000007FE070000001806001807FF4F
:103138000000000007FF070000001807001807FF3D
:10314800000000000707C30000001800000007FF88
:10315800000000000707C30000001800FFE007FF99
:10316800000000000707C70000001800FFC007FFA5
:103178000000000007E0FF0000001800000007FF43
:103188000000000007E0FF0000001800000007FF33
:103198000000000003E0FF0000001800000003FF2B
:1031A8000000000000F83F000000E000000000FF01
:1031B8000000000000F83F000000E000000000FFF1
:1031C80000000000001E07000000E002000040FFB1
:1031D80000000000001F07020000E0030000E0FFFD
:1031E80000000000001F07000000E0070000E0FFEB
:1031F800000000000007FF000000E01F00C3E0FF20
:10320800000000000007FF000000E01F00E7E0FFEB
:10321800000000000007FF000000E01F00C7C0FF1B
:103228000000000000003F000000E000000000FF78
:103238000000000000001F000040E000000000FF48
:103248000000000000001F000000E002020200FF72
:1032580000000000000007000000E007070700FF6B
:10326800000000000000070000006007070700FFDB
:10327800000000000000070000001807FFFF03FF20
:10328800000000000000070000001807FFFF07FF0C
:10329800000000000000070000001803FFFF07FF00
:1032A8000000000000003FC00000070000001FFFF2
:1032B8000000000000003FC00000070000001FFFE2
:1032C800000000000000FFC00000079F7A053FFFD4
:1032D800000000000001C01FFFFFFFFFFFFFFFFF0E
:1032E800000000000001C01FFFFFFFFFFFFFFFFFFE
:1032F800000000000001C0FFE0FFFFE0FF07FFFF44
:10330800000000000001C0FFE0FFFFE0FF07FFFF33
:103318000007FFFFE001E0FFE0FFFFE1FF07FFFF1D
:103328000007FFFFE001FFFFFFFFFFFFFFFFFFFFB9
:103338000007FFFFE001FFFFFFFFFFFFFFFFFFFFA9
:10334800FFFFFFFFFFFFFFFFFFFFFFFFFFFFFFFF85
:10335800FFFFFFFFFFFFFFFFFFFFFFFFFFFFFFFF75
:10336800FFFFFFFFFFFFFFFFFFFFFFFFFFFFFFFF65
:10337800FFFFFFFFFFFFFFFFFFFFFFFFFFFFFFFF55
:10338800FFFFFFFFFFFFFFFFFFFFFFFFFFFFFFFF45
:10339800FFFFFFFFFFFFFFFFFFFFFFFFFFFFFFFF35
:1033A800FFFFFFFFFFFFFFFFFFFFFFFFFFFFFFFF25
:1033B800FFFFFFFFFFFFFFFFFFFFFFFFF8FFFFFF1C
:1033C800FFFFFFFFFFFFFFFFFFFFFFFFF8FFFFFF0C
:1033D800FFFFFFFFFFFFFFFFFFFFFFFFFFFFFFFFF5
:1033E800FFFFFFFFFFFFFFFFFFFFFFFFFFFFFFFFE5
:1033F800FFFFFFFFFFFFFFFFFFFFFFFFFFFFFFFFD5
:10340800FFFFFFFFFFFFFFFFFFFFFFFFFFFFFFFFC4
:10341800FFFFFFFFFFFFFFE00000000000FFFFFFCE
:10342800FFF800001FFFFFC00000000000FFFFFFC3
:10343800FFFFDFFE9FFFFFC00000000000FFFFFF4F
:103448000007FFFFC000070000000000001FFFFF8B
:103458000007FFFFC000070000000000001FFFFF7B
:103468007FFDFFFFFFFFF70000000000001FFFFFC8
:103478007FFFFFFFFFFFF70000000000001FFFFFB6
:103488007FEFFFFFFFFFF70000020200001FFFFFB2
:103498007FF800001FFFF70000000000001FFFFF7B
:1034A8007FF800001FFFF70000000000001FFFFF6B
:1034B800000000000000070000000000001FFFFFE0
:1034C8000000000000000700000003C0001FFFFF0D
:1034D8000000000000000700000007E0401FFFFF99
:1034E8000000000000000700000007C0001FFFFFE9
:1034F800000000000000070000001818001F07FF68
:10350800000000000000070000001818001F07FF57
:10351800000000000000070000001818001F07FF47
:103528000000000007FE070000001806001807FF4B
:103538000000000007FF070000001807001807FF39
:10354800000000000707C30000001800000007FF84
:10355800000000000707C30000001800FFE007FF95
:10356800000000000707C70000001800FFC007FFA1
:103578000000000007E0FF0000001800000007FF3F
:103588000000000007E0FF0000001800000007FF2F
:103598000000000003E0FF0000001800000003FF27
:1035A8000000000000F83F000000E000000000FFFD
:1035B8000000000000F83F000000E000000000FFED
:1035C80000000000001E07000000E002000040FFAD
:1035D80000000000001F07020000E0030000E0FFF9
:1035E80000000000001F07000000E0030000E0FFEB
:1035F800000000000007FF000000E01F00C3E0FF1C
:10360800000000000007FF000000E01F00E7E0FFE7
:10361800000000000003FF000000E01F00C3C0FF1F
:103628000000000000003F000000E000000000FF74
:103638000000000000001F000040E000000000FF44
:103648000000000000001F000000E002020200FF6E
:1036580000000000000007000000E007070700FF67
:10366800000000000000070000006007070700FFD7
:10367800000000000000070000001807FFFF03FF1C
:10368800000000000000070000001807FFFF07FF08
:10369800000000000000170000001807FFFF07FFE8
:1036A8000000000000003FC00000070000003FFFCE
:1036B8000000000000003FC00000070000001FFFDE
:1036C800000000000000FFC0000007AC3A493FFFBF
:1036D800000000000001C01FFFFFFFFFFFFFFFFF0A
:1036E800000000000001C01FFFFFFFFFFFFFFFFFFA
:1036F800000000000001C0FFE0FFFFE0FF07FFFF40
:10370800000000000001C0FFE0FFFFE0FF07FFFF2F
:103718000007FFFFE001E0FFE0FFFFE1FF07FFFF19
:103728000007FFFFE001FFFFFFFFFFFFFFFFFFFFB5
:103738000007FFFFE001FFFFFFFFFFFFFFFFFFFFA5
:10374800FFFFFFFFFFFFFFFFFFFFFFFFFFFFFFFF81
:10375800FFFFFFFFFFFFFFFFFFFFFFFFFFFFFFFF71
:10376800FFFFFFFFFFFFFFFFFFFFFFFFFFFFFFFF61
:10377800FFFFFFFFFFFFFFFFFFFFFFFFFFFFFFFF51
:10378800FFFFFFFFFFFFFFFFFFFFFFFFFFFFFFFF41
:10379800FFFFFFFFFFFFFFFFFFFFFFFFFFFFFFFF31
:1037A800FFFFFFFFFFFFFFFFFFFFFFFFFFFFFFFF21
:1037B800FFFFFFFFFFFFFFFFFFFFFFFFFFFFFFFF11
:1037C800FFFFFFFFFFFFFFFFFFFFFFFFFFFFFFFF01
:1037D800FFFFFFFFFFFFFFFFFFFFFFFFFFFFFFFFF1
:1037E800FFFFFFFFFFFFFFFFFFFFFFFFFFFFFFFFE1
:1037F800FFFFFFFFFFFFFFFFFFFFFFFFFFFFFFFFD1
:10380800FFFFFFFFFFFFFFFFFFFFFFFFFFFFFFFFC0
:103818007FFFFFFFFFFFFFFFFFFFFFFFFFFFFFFF30
:103828000000FFFFF800003FFFFFFFFFFFFFFFFF63
:103838007FFC7FFFFBFFFE3FFFFFFFFFFFFFFFFF58
:103848007FFE000003FFFFC00000000000FFFFFF35
:103858007FFE000003FFFDC00000000000FFFFFF27
:103868007FFFFFFFFFFFF7C00000000000FFFFFF22
:103878007FFFFFFFFFFFF70000000000001FFFFFB2
:103888007FFFFFFFFFFFF70000000000001FFFFFA2
:103898000000FFFFF800070000000000001FFFFF06
:1038A80000007FFFF800070000000000001FFFFF76
:1038B800000000000000070000000200001FFFFFDA
:1038C800000000000000070000000000001FFFFFCC
:1038D800000000000000070000000000001FFFFFBC
:1038E800000000000000070000000000001FFFFFAC
:1038F8000000000000000700000003C0001FFFFFD9
:103908000000000000000700000007C0401FFFFF84
:103918000000000000000700000003C0001FFFFFB8
:10392800000000000000030000001818001F07FF37
:10393800000000000000030000001818001F07FF27
:10394800000000000000030000001800001C07FF32
:10395800000000000000030000001807001807FF1F
:10396800000000000000030000001806001807FF10
:103978000000000003FE030000001800FFE007FF3E
:103988000000000007FF030000001800FFE007FF29
:103998000000000007FF070000001800FFC007FF35
:1039A800000000001807FF0000001800000007FFD3
:1039B800000000001807FF0000001800000007FFC3
:1039C800000000001F003F0000000000000001FF91
:1039D800000000001F003F000000E000000000FFA2
:1039E800000000001F001F000000E000000000FFB2
:1039F8000000000000FFC7000000E0030000C0FF57
:103A08000000000000FFC7000000E0030000E0FF26
:103A18000000000000FFE7000000E0070000E0FFF2
:103A2800000000000001FF000000E01F00C7E0FFE9
:103A3800000000000000FF000000E01F00E7E0FFBA
:103A4800000000000000FF000000E01A004240FFF4
:103A580000000000000007000040E000000000FF38
:103A680000000000000007000000E000000000FF68
:103A780000000000000007000000E007070700FF43
:103A880000000000000007004000E007070700FFF3
:103A9800000000000000070000004007070700FFC3
:103AA8000008000000003F0000001807FFFF07FFA4
:103AB8000000000000003F0000001807FFFF07FF9C
:103AC800000000000000FF0000000203FFFE17FFD7
:103AD800000000000001FFC00000070000003FFFD9
:103AE800000000000001FFC00000070000001FFFE9
:103AF80000000000000700FFFFFFFFFFFFFFFFFFC0
:103B080000000000000700FFFFFFFFFFFFFFFFFFAF
:103B18007FFF000007FF00FFFFFFFFFFFFFFFFFF22
:103B2800FFFF000007FF07F81FFFFF07F81FFFFF51
:103B3800FFFF000007FF07F81FFFFF07F81FFFFF41
:103B4800FFFFFFFFFFFF07FC3FFFFF07FC3FFFFFF3
:103B5800FFFFFFFFFFFFFFFFFFFFFFFFFFFFFFFF6D
:103B6800FFFFFFFFFFFFFFFFFFFFFFFFFFFFFFFF5D
:103B7800FFFFFFFFFFFFFFFFFFFFFFFFFFFFFFFF4D
:103B8800FFFFFFFFFFFFFFFFFFFFFFFFFFFFFFFF3D
:103B9800FFFFFFFFFFFFFFFFFFFFFFFFFFFFFFFF2D
:103BA800FFFFFFFFFFFFFFFFFFFFFFFFFFFFFFFF1D
:103BB800FFFFFFFFFFFFFFFFFFFFFFFFFFFFFFFF0D
:103BC800FFFFFFFFFFFFFFFFFFFFFFFFFFFFFFFFFD
:103BD800FFFFFFFFFFFFFFFFFFFFFFFFFFFFFFFFED
:103BE800FFFFFFFFFFFFFFFFFFFFFFFFFFFFFFFFDD
:103BF800FFFFFFFFFFFFFFFFFFFFFFFFFFFFFFFFCD
:103C0800FFFFFFFFFFFFFFFFFFFFFFFFFFFFFFFFBC
:103C18007FFFFFFFFDFFFFBFFFFFFFFFFFFFFFFF6E
:103C28000000FFFFF800003FFFFFFFFFFFFFFFFF5F
:103C38007FFCFFFFFBFFEE3FFFFFFFFFFFFFFFFFE4
:103C48007FFE000003FFFFC00000000000FFFFFF31
:103C58007FFE000003FFFFC00000000000FFFFFF21
:103C68007FFFFFFFFFFFF7C00000000000FFFFFF1E
:103C78007FFFFFFFFFFFF70000000000001FFFFFAE
:103C88007FFFFFFFFFFFF70000000000001FFFFF9E
:103C98000000FFFFF800070000000000001FFFFF02
:103CA80000007FFFF800070000000000001FFFFF72
:103CB800000020009000070000000200001FFFFF26
:103CC800000000000000070000000000001FFFFFC8
:103CD800000000000000070000000000001FFFFFB8
:103CE800000000000000070000000000001FFFFFA8
:103CF8000000000000000700000003C0001FFFFFD5
:103D08000000000000000700000007E0401FFFFF60
:103D18000000000000000700000003C0001FFFFFB4
:103D2800000000000000030000001818001F07FF33
:103D3800000000000000030000001818001F07FF23
:103D4800000000000000030000001800001C07FF2E
:103D5800000000000000030000001807001807FF1B
:103D6800000000000000030000001806001807FF0C
:103D78000000000003FE030000001800FFE007FF3A
:103D88000000000007FF030000001800FFE007FF25
:103D98000000000007FF070000001800FFC007FF31
:103DA800000000001807FF0000001800000007FFCF
:103DB800000000001807FF0000001800000007FFBF
:103DC800000000001F003F0000000000000001FF8D
:103DD800000000001F003F000000E000000000FF9E
:103DE800000000001F001F000000E000000000FFAE
:103DF8000000000000FFC7000000E0030000C0FF53
:103E08000000000000FFC7000000E0030000E0FF22
:103E18000000000000FFE7000000E0070000E0FFEE
:103E2800000000000000FF000000E01F00C7E0FFE6
:103E3800000000000000FF000000E01F00E7E0FFB6
:103E4800000000000000FF000000E01A004240FFF0
:103E580000000000000007000040E000000000FF34
:103E680000000000000007000000E000000000FF64
:103E780000000000000007000000E007070700FF3F
:103E880000000000000007004000E007070700FFEF
:103E9800000000000000070000004007070700FFBF
:103EA8000008000000003F0000001807FFFF07FFA0
:103EB8000000000000003F0000001807FFFF07FF98
:103EC800000000000000FF0000000203FFFE1FFFCB
:103ED800000000000001FFC00000070000001FFFF5
:103EE800000000000001FFC00000070000001FFFE5
:103EF80000000000000F00FFFFFFFFFFFFFFFFFFB4
:103F080000000000000700FFFFFFFFFFFFFFFFFFAB
:103F18007FFF000007FF00FFFFFFFFFFFFFFFFFF1E
:103F2800FFFF000007FF07F81FFFFF07F81FFFFF4D
:103F3800FFFF000007FF07F81FFFFF07F81FFFFF3D
:103F4800FFFFFFFFFFFF07FC3FFFFF07FC3FFFFFEF
:103F5800FFFFFFFFFFFFFFFFFFFFFFFFFFFFFFFF69
:103F6800FFFFFFFFFFFFFFFFFFFFFFFFFFFFFFFF59
:103F7800FFFFFFFFFFFFFFFFFFFFFFFFFFFFFFFF49
:103F8800FFFFFFFFFFFFFFFFFFFFFFFFFFFFFFFF39
:103F9800FFFFFFFFFFFFFFFFFFFFFFFFFFFFFFFF29
:103FA800FFFFFFFFFFFFFFFFFFFFFFFFFFFFFFFF19
:103FB800FFFFFFFFFFFFFFFFFFFFFFFFFFFFFFFF09
:103FC800FFFFFFFFFFFFFFFFFFFFFFFFFFFFFFFFF9
:103FD800FFFFFFFFFFFFFFFFFFFFFFFFFFFFFFFFE9
:103FE800FFFFFFFFFFFFFFFFFFFFFFFFFFFFFFFFD9
:103FF800FFFFFFFFFFFFFFFFFFFFFFFFFFFFFFFFC9
:10400800FFFFFFFFFFFFFFFFFFFFFFFFFFFFFFFFB8
:10401800FFFFFFFF7FFFFFFFFFFFFFFFFFFFFFFF28
:10402800FFF800001FFFFFFFFFFFFFFFFFFFFFFF7D
:10403800FFFFFFFF9FFFFFFFFFFFFFFFFFFFFFFFE8
:104048000003FFFFC00000C00000000000FFFFFFEA
:104058000007FFFFC00000C00000000000FFFFFFD6
:104068007FFFFFFFFFFFF7C00000000000FFFFFF1A
:104078007FFFFFFFFFFFF70000000000001FFFFFAA
:104088007FFFFFFFFFFFF70000000000001FFFFF9A
:104098007FF800001FFFF70000000000001FFFFF6F
:1040A8007FF800001FFFF70000000000001FFFFF5F
:1040B800000000000000070000000000001FFFFFD4
:1040C800000000000000070000000000001FFFFFC4
:1040D800000000000000070000000000001FFFFFB4
:1040E800000000000000070000000000001FFFFFA4
:1040F800000000000000070000000078001FFFFF1C
:104108000000000000000700000000F8401FFFFF4B
:104118000000000000000700000000F8001FFFFF7B
:10412800000000000000070000000306001FE0FF79
:10413800000000000000070000000707001FE0FF64
:10414800000000000000030000000700001F00FF3F
:10415800000000000000030000000700E01F00FF4F
:10416800000000000000030000000700C01F00FF5F
:104178000000000000000300000007001FF800FF17
:104188000000000000000300000007001FF800FF07
:104198000000000000000300000007001FF800FFF7
:1041A800000000000000030000000700000000FFFE
:1041B800000000000000030000000700000000FFEE
:1041C8000000000000000700000000000000003FA1
:1041D800000000000000FF00000218000000001F9F
:1041E800000000000000FF00000018000000001F91
:1041F80000000000001F070000001800C000181F82
:1042080000000000001F070000001800E000181F51
:1042180000000000001F070000001800E000181F41
:104228000000000000E0070000001807E018F81F71
:104238000000000000E0070000001807E018F81F61
:104248000000000007C3E700000018024018181F0C
:10425800000000000707FF00004018000000001FD2
:10426800000000000707FF00000018000000001F02
:104278000000000007070F0000001800E0C0E01F62
:10428800000000000707070000001800E0E0E01F3A
:10429800000000000707070000000800E0E0E01F3A
:1042A8000000000000FC070000000700FFFFE0FF1F
:1042B8000000000000FC070000000700FFFFE0FF0F
:1042C8000000000001FC0700000000407FFFC1FF64
:1042D80000000000000007C0000000E0000007FF29
:1042E8000000000000000FC0000000E0000007FF11
:1042F800000000000000381FFFFFFFFFFFFFFFFF67
:10430800000000000000383FFFFFFFFFFFFFFFFF36
:104318000007FFFFE000383FFFFFFFFFFFFFFFFF41
:104328000007FFFFE000381FE0FFFFF81FE0FFFF76
:104338000007FFFFE000381FE0FFFFF81FC0FFFF86
:10434800FFFFFFFFFFFFFC3FE0FFFFF83FE0FFFF3D
:10435800FFFFFFFFFFFFFFFFFFFFFFFFFFFFFFFF65
:10436800FFFFFFFFFFFFFFFFFFFFFFFFFFFFFFFF55
:10437800FFFFFFFFFFFFFFFFFFFFFFFFFFFFFFFF45
:10438800FFFFFFFFFFFFFFFFFFFFFFFFFFFFFFFF35
:10439800FFFFFFFFFFFFFFFFFFFFFFFFFFFFFFFF25
:1043A800FFFFFFFFFFFFFFFFFFFFFFFFFFFFFFFF15
:1043B800FFFFFFFFFFFFFFFFFFFFFFFFFFFFFFFF05
:1043C800FFFFFFFFFFFFFFFFFFFFFFFFFFFFFFFFF5
:1043D800FFFFFFFFFFFFFFFFFFFFFFFFFFFFFFFFE5
:1043E800FFFFFFFFFFFFFFFFFFFFFFFFFFFFFFFFD5
:1043F800FFFFFFFFFFFFFFFFFFFFFFFFFFFFFFFFC5
:10440800FFFFFFFFFFFFFFFFFFFFFFFFFFFFFFFFB4
:10441800FFFFFFFFFFFFFFFFFFFFFFFFFFFFFFFFA4
:10442800FFF800001FFFFFFFFFFFFFFFFFFFFFFF79
:10443800FFFFFFFF9FFFFFFFFFFFFFFFFFFFFFFFE4
:104448000007FFFFC00001C00000000000FFFFFFE1
:104458000003FFFFC00000C00000000000FFFFFFD6
:104468007FFFFFFFFFFFF7C00000000000FFFFFF16
:104478007FFFFFFFFFFFF70000000000001FFFFFA6
:104488007FFFFFFFFFFFF70000000000001FFFFF96
:104498007FF800001FFFF70000000000001FFFFF6B
:1044A8007FF800001FFFF70000000000001FFFFF5B
:1044B800000000000000070000000000001FFFFFD0
:1044C800000000000000070000000000001FFFFFC0
:1044D800000000000000070000000000001FFFFFB0
:1044E800000000000000070000000000001FFFFFA0
:1044F800000000000000070000000058001FFFFF38
:104508000000000000000700000000F8401FFFFF47
:104518000000000000000700000000F8001FFFFF77
:10452800000000000000070000000306001FE0FF75
:10453800000000000000070000000707001FE0FF60
:10454800000000000000030000000700001F00FF3B
:10455800000000000000030000000700E01F00FF4B
:10456800000000000000030000000700C01F00FF5B
:104578000000000000000300000007001FF800FF13
:104588000000000000000300000007001FF800FF03
:104598000000000000000300000007001FF800FFF3
:1045A800000000000000030000000700000000FFFA
:1045B800000000000000030000000700000000FFEA
:1045C8000000000000000700000000000000003F9D
:1045D8000000000000001F00000218000000001F7B
:1045E8000000000000003F00000018000000001F4D
:1045F80000000000001FFF0000001800C000181F86
:1046080000000000001FFF0000001800E000181F55
:1046180000000000001FFF0000001800E000181F45
:104628000000000007E0070000001807E018F81F66
:104638000000000007E0070000001807E018F81F56
:104648000000000007C07700000018024018581F3B
:10465800000000000700FF00004018000000001FD5
:10466800000000000700FF00000018000000001F05
:104678000000000001FFEF0000001800E0C0E01F8C
:104688000000000001FFE70000001800E0E0E01F64
:104698000000000000FFC70000000800E0E0E01F85
:1046A800000000000000070000000700FFFFE0FF17
:1046B800000000000000070000000700FFFFE0FF07
:1046C8000000000000000700000000C07FFFC1FFDD
:1046D80000000000000007C0000000E0000007FF25
:1046E80000000000000007C0000000E0000007FF15
:1046F800000000000000071FFFFFFFFFFFFFFFFF94
:10470800000000000000073FFFFFFFFFFFFFFFFF63
:104718000003FFFFC000071FFFFFFFFFFFFFFFFFB2
:104728000007FFFFE0000707F81FFFFF07F83FFF3C
:104738000007FFFFE0000707F81FFFFF07F81FFF4C
:10474800FFFFFFFFFFFFFF07F83FFFFF07FC3FFFEB
:10475800FFFFFFFFFFFFFFFFFFFFFFFFFFFFFFFF61
:10476800FFFFFFFFFFFFFFFFFFFFFFFFFFFFFFFF51
:10477800FFFFFFFFFFFFFFFFFFFFFFFFFFFFFFFF41
:10478800FFFFFFFFFFFFFFFFFFFFFFFFFFFFFFFF31
:10479800FFFFFFFFFFFFFFFFFFFFFFFFFFFFFFFF21
:1047A800FFFFFFFFFFFFFFFFFFFFFFFFFFFFFFFF11
:1047B800FFFFFFFFFFFFFFFFFFFFFFFFFFFFFFFF01
:1047C800FFFFFFFFFFFFFFFFFFFFFFFFFFFFFFFFF1
:1047D800FFFFFFFFFFFFFFFFFFFFFFFFFFFFFFFFE1
:1047E800FFFFFFFFFFFFFFFFFFFFFFFFFFFFFFFFD1
:1047F800FFFFFFFFFFFFFFFFFFFFFFFFFFFFFFFFC1
:10480800FFFFFFFFFFFFFFFFFFFFFFFFFFFFFFFFB0
:104818007FFFFFFFFDFFFFE00000000000FFFFFF3C
:104828000000FFFFF80000C00000000000FFFFFFCD
:104838007FFCFFFFFBFFF0C00000000000FFFFFF50
:104848007FFE000003FFF30000000000001FFFFFD1
:104858007FFE000003FFF70000000000001FFFFFBD
:104868007FFFFFFFFFFFF70000000000001FFFFFB2
:104878007FFFFFFFFFFFF70000000000001FFFFFA2
:104888007FFFFFFFFFFFF70000020200001FFFFF8E
:104898000000FFFFF800070000000000001FFFFFF6
:1048A80000007FFFF000070000000000001FFFFF6E
:1048B80000000000F000070000000000001FFFFFDC
:1048C800000000000000070000000078001FFFFF44
:1048D8000000000000000700000000F8401FFFFF74
:1048E8000000000000000700000000F8001FFFFFA4
:1048F800000000000000070000000202001FE0FFA7
:10490800000000000000070000000707001FE0FF8C
:10491800000000000000030000000707001FC0FFA0
:10492800000000000000030000000700C01F00FF97
:10493800000000000000030000000700E01F00FF67
:10494800000000000000030000000700003C00FF1A
:104958000000000000F80300000007001FF800FF37
:104968000000000000F80300000007001FF800FF27
:10497800000000000306030000000700000000FF1D
:10498800000000000707030000000700000000FF08
:10499800000000000707070000000300000000FFF8
:1049A800000000000707FF00000018000000001FBB
:1049B800000000000707FF00000018000000001FAB
:1049C8000000000000C0070000001800C000181F09
:1049D8000000000000E0070200001800E000181FB7
:1049E8000000000000E0070000001800E000181FA9
:1049F80000000000001F070000001807E018F81F5B
:104A080000000000001F070000001807E038FC1F26
:104A180000000000001F070000001807E018F81F3A
:104A2800000000000000FF00000018000000001F48
:104A3800000000000000FF00004018000000001FF8
:104A4800000000000000FF0000001800C040C01F68
:104A5800000000000000070000001800E0E0E01F70
:104A6800000000000000070000001800E0E0E01F60
:104A7800000000000000070000000700FFFFE0FF43
:104A8800000000000000070000000700FFFFE0FF33
:104A9800000000000000070000000200FFFFC0FF48
:104AA80000000000000007C0000000E0000007FF51
:104AB80000000000000007C0000000E0000007FF41
:104AC8000000000000003FC0000000ECF25127FF8A
:104AD800000000000000381FFFFFFFFFFFFFFFFF7F
:104AE800000000000000381FFFFFFFFFFFFFFFFF6F
:104AF800000000000000383FE0FFFFF81FE0FFFF64
:104B0800400000000000381FE0FFFFF81FC0FFFF53
:104B18001FFF000007FFBC3FE0FFFFF83FE0FFFF7B
:104B28001FFF000007FFFFFFFFFFFFFFFFFFFFFF63
:104B38001FFF000007FFFFFFFFFFFFFFFFFFFFFF53
:104B48001FFFFFFFFFFFFFFFFFFFFFFFFFFFFFFF4D
:104B5800FFFFFFFFFFFFFFFFFFFFFFFFFFFFFFFF5D
:104B6800FFFFFFFFFFFFFFFFFFFFFFFFFFFFFFFF4D
:104B7800FFFFFFFFFFFFFFFFFFFFFFFFFFFFFFFF3D
:104B8800FFFFFFFFFFFFFFFFFFFFFFFFFFFFFFFF2D
:104B9800FFFFFFFFFFFFFFFFFFFFFFFFFFFFFFFF1D
:104BA800FFFFFFFFFFFFFFFFFFFFFFFFFFFFFFFF0D
:104BB800FFFFFFFFFFFFFFFFFFFFFFFFFFFFFFFFFD
:104BC800FFFFFFFFFFFFFFFFFFFFFFFFFFFFFFFFED
:104BD800FFFFFFFFFFFFFFFFFFFFFFFFFFFFFFFFDD
:104BE800FFFFFFFFFFFFFFFFFFFFFFFFFFFFFFFFCD
:104BF800FFFFFFFFFFFFFFFFFFFFFFFFFFFFFFFFBD
:104C0800FFFFFFFFFFFFFFFFFFFFFFFFFFFFFFFFAC
:104C18007FFFFFFFFFFFFFE00000000000FFFFFF36
:104C28000000FFFFF80000C00000000000FFFFFFC9
:104C38007FFCFFFFFBF7F1C00000000000FFFFFF53
:104C48007FFE000003FFF30000000000001FFFFFCD
:104C58007FFF000003FFF70000000000001FFFFFB8
:104C68007FFFFFFFFBFFF70000000000001FFFFFB2
:104C78007FFFFFFFFFFFF70000000000001FFFFF9E
:104C88007FFFFFFFFFFFF70000020200001FFFFF8A
:104C98000000FFFFF800070000000000001FFFFFF2
:104CA80000007FFFF000070000000000001FFFFF6A
:104CB800000000001000070000000000001FFFFFB8
:104CC800000000000000070000000078001FFFFF40
:104CD8000000000000000700000000F8401FFFFF70
:104CE8000000000000000700000000F8001FFFFFA0
:104CF800000000000000070000000202001FE0FFA3
:104D0800000000000000070000000707001FE0FF88
:104D1800000000000000070000000706001FC0FF99
:104D2800000000000000030000000700C01F00FF93
:104D3800000000000000030000000700E01F00FF63
:104D4800000000000000030000000700003C00FF16
:104D58000000000000F80300000007001FF800FF33
:104D68000000000000F80300000007001FF800FF23
:104D7800000000000306030000000700000000FF19
:104D8800000000000707030000000700000000FF04
:104D9800000000000707070000000300000000FFF4
:104DA800000000000707FF00000018000000001FB7
:104DB800000000000707FF00000018000000001FA7
:104DC8000000000000C0070000001800C000181F05
:104DD8000000000000E0070200001800E000181FB3
:104DE8000000000000E0070000001800E000181FA5
:104DF80000000000001F070000001807E018F81F57
:104E080000000000001F070000001807E038F81F26
:104E180000000000001F070000001807E018F81F36
:104E2800000000000000FF00000018000000001F44
:104E3800000000000000FF00004018000000001FF4
:104E4800000000000000FF00000018004040401F64
:104E5800000000000000070000001800E0C0E01F8C
:104E6800000000000000070000001800E0E0E01F5C
:104E7800000000000000070000000700FFFFE0FF3F
:104E8800000000000000070000000700FFFFE0FF2F
:104E9800000000000000070000000200FFFFC0FF44
:104EA80000100000000007C0000000E0000007FF3D
:104EB80000000000000007C0000000E0000007FF3D
:104EC8000000000000003FC0000000E57F35B7FF8C
:104ED800000000000000381FFFFFFFFFFFFFFFFF7B
:104EE800000000000000381FFFFFFFFFFFFFFFFF6B
:104EF800000000000000381FE0FFFFF81FE0FFFF80
:104F0800400000000000381FE0FFFFF81FC0FFFF4F
:104F18001FFF000007FFFC3FE0FFFFF83FE0FFFF37
:104F28001FFF000007FFFFFFFFFFFFFFFFFFFFFF5F
:104F38001FFF000007FFFFFFFFFFFFFFFFFFFFFF4F
:104F48001FFFFFFFFFFFFFFFFFFFFFFFFFFFFFFF49
:104F5800FFFFFFFFFFFFFFFFFFFFFFFFFFFFFFFF59
:104F6800FFFFFFFFFFFFFFFFFFFFFFFFFFFFFFFF49
:104F7800FFFFFFFFFFFFFFFFFFFFFFFFFFFFFFFF39
:104F8800FFFFFFFFFFFFFFFFFFFFFFFFFFFFFFFF29
:104F9800FFFFFFFFFFFFFFFFFFFFFFFFFFFFFFFF19
:104FA800FFFFFFFFFFFFFFFFFFFFFFFFFFFFFFFF09
:104FB800FFFFFFFFFFFFFFFFFFFFFFFFFFFFFFFFF9
:104FC800FFFFFFFFFFFFFFFFFFFFFFFFFFFFFFFFE9
:104FD800FFFFFFFFFFFFFFFFFFFFFFFFFFFFFFFFD9
:104FE800FFFFFFFFFFFFFFFFFFFFFFFFFFFFFFFFC9
:104FF800FFFFFFFFFFFFFFFFFFFFFFFFFFFFFFFFB9
:10500800FFFFFFFFFFFFFFFFFFFFFFFFFFFFFFFFA8
:105018007FFFFFFFFFFFFFE00000000000FFFFFF32
:105028000000FFFFF80000C00000000000FFFFFFC5
:105038007FFCFFFFFBFFF1C00000000000FFFFFF47
:105048007FFE000003FFF30000000000001FFFFFC9
:105058007FFE000003FFF70000000000001FFFFFB5
:105068007FFFFFFFFFFFF70000000000001FFFFFAA
:105078007FFFFFFFFFFFF70000000000001FFFFF9A
:105088007FFFFFFFFFFFF70000020200001FFFFF86
:105098000000FFFFF800070000000000001FFFFFEE
:1050A80000007FFFF000070000000000001FFFFF66
:1050B800000000003000070000000000001FFFFF94
:1050C8000000000000000700000003C0001FFFFFF1
:1050D8000000000000000700000007C0401FFFFF9D
:1050E8000000000000000700000003C0001FFFFFD1
:1050F800000000000000070000001818001F07FF4C
:10510800000000000000070000001818001F07FF3B
:10511800000000000000070000001818001F07FF2B
:105128000000000007FE030000001806001807FF33
:105138000000000007FF030000001807001807FF21
:10514800000000000787030000001800000007FFA8
:10515800000000000707C30000001800FFE007FF79
:10516800000000000707C70000001800FFC007FF85
:105178000000000007E0FF0000001800000007FF23
:105188000000000007E0FF0000001800000007FF13
:105198000000000003E0FF0000001800000003FF0B
:1051A8000000000000F83F000000E000000000FFE1
:1051B8000000000000F83F000000E000000000FFD1
:1051C80000000000001E07000000E002000040FF91
:1051D80000000000001F07020000E0030000E0FFDD
:1051E80000000000001F07000000E0030000E0FFCF
:1051F800000000000007FF000000E01F00C7E0FFFC
:10520800000000000007FF000000E01F00E7E0FFCB
:10521800000000000003FF000000E01F00C3C0FF03
:105228000000000000003F000000E000000000FF58
:105238000000000000003F000040E000000000FF08
:105248000000000000001F000000E002020200FF52
:1052580000000000000007000000E007070700FF4B
:10526800000000000000070000006007070700FFBB
:10527800000000000000070000001807FFFF03FF00
:10528800000000000000070000001807FFFF07FFEC
:10529800000000000000370000001807FFFF07FFAC
:1052A8000002000000003FC00000070000003FFFB0
:1052B8000002000000003FC00000070000003FFFA0
:1052C800000000000001FFC000000723F6DFBFFF59
:1052D800000000000001C03FFFFFFFFFFFFFFFFFCE
:1052E800000040000001C03FFFFFFFFFFFFFFFFF7E
:1052F800000000000001C0FFE0FFFFE0FF07FFFF24
:1053080000C000C00001C0FFE0FFFFE0FF07FFFF93
:105318007F1F000007FDE0FFE0FFFFE1FF07FFFF41
:10532800FE1F800007FFFFFFFFFFFFFFFFFFFFFFDC
:10533800FE1F000007FFFFFFFFFFFFFFFFFFFFFF4C
:10534800FF1FFF1FFFFFFFFFFFFFFFFFFFFFFFFF25
:10535800FFFFFFFFFFFFFFFFFFFFFFFFFFFFFFFF55
:10536800FFFFFFFFFFFFFFFFFFFFFFFFFFFFFFFF45
:10537800FFFFFFFFFFFFFFFFFFFFFFFFFFFFFFFF35
:10538800FFFFFFFFFFFFFFFFFFFFFFFFFFFFFFFF25
:10539800FFFF3FFFFFFFFFFFFFFFFFFFFFFFFFFFD5
:1053A800FFFF1FFFFFFFFFFFFFFFFFFFFFFFFFFFE5
:1053B800FFFFFFFFFFFFFFFFFFFFFFFFFFFFFFFFF5
:1053C800FFFFFFFFFFFFFFFFFFFFFFFFFFFFFFFFE5
:1053D800FFFFFFFFFFFFFFFFFFFFFFFFFFFFFFFFD5
:1053E800FFFFFFFFFFFFFFFFFFFFFFFFFFFFFFFFC5
:1053F800FFFFFFFFFFFFFFFFFFFFFFFFFFFFFFFFB5
:10540800FFFFFFFFFFFFFFFFFFFFFFFFFFFFFFFFA4
:105418007FFFFFFFFFFFFFE00000000000FFFFFF2E
:105428000000FFFFF80000C00000000000FFFFFFC1
:105438007FFCFFFFF9FFE8C00000000000FFFFFF4E
:105448007FFE000003FFE30000000000001FFFFFD5
:105458007FFE000001FFF70000000000001FFFFFB3
:105468007FFFFFFFFFFFF70000000000001FFFFFA6
:105478007FFFFFFFFFFFF70000000000001FFFFF96
:105488007FFFFFFFFFFFF70000020200001FFFFF82
:105498000000FFFFF800070000000000001FFFFFEA
:1054A80000007FFFF000070000000000001FFFFF62
:1054B800000020001000070000000000001FFFFF90
:1054C8000000000000000700000003C0001FFFFFED
:1054D8000000000000000700000007E0401FFFFF79
:1054E8000000000000000700000003C0001FFFFFCD
:1054F800000000000000070000001818001F07FF48
:10550800000000000000070000001818001F07FF37
:10551800000000000000070000001818001F07FF27
:105528000000000007FE030000001806001807FF2F
:105538000000000007FF030000001807001807FF1D
:10554800000000000787030000001800000007FFA4
:10555800000000000707C30000001800FFE007FF75
:10556800000000000707C70000001800FFC007FF81
:105578000000000007E0FF0000001800000007FF1F
:105588000000000007E0FF0000001800000007FF0F
:105598000000000003E0FF0000001800000003FF07
:1055A8000000000000F83F000000E000000000FFDD
:1055B8000000000000F83F000000E000000000FFCD
:1055C80000000000001E07000000E002000040FF8D
:1055D80000000000001F07020000E0030000E0FFD9
:1055E80000000000001F07000000E0030000E0FFCB
:1055F800000000000007FF000000E01F00C3E0FFFC
:10560800000000000007FF000000E01F00E7E0FFC7
:10561800000000000007FF000000E01F00C3C0FFFB
:105628000000000000003F000000E000000000FF54
:105638000000000000003F000040E000000000FF04
:105648000000000000001F000000E002020200FF4E
:1056580000000000000007000000E007070700FF47
:10566800000000000000070000006007070700FFB7
:10567800000000000000070000001807FFFF03FFFC
:10568800000000000000070000001807FFFF07FFE8
:10569800000000000000170000001807FFFF07FFC8
:1056A8000002000000003FC00000070000003FFFAC
:1056B8000002000000003FC00000070000003FFF9C
:1056C800000000000000FFC0000007B7B7FE3FFF62
:1056D800000000000001C01FFFFFFFFFFFFFFFFFEA
:1056E800000000000001C01FFFFFFFFFFFFFFFFFDA
:1056F800000000000001C0FFE0FFFFE0FF07FFFF20
:1057080000C000C00001C0FFE0FFFFE0FF07FFFF8F
:105718007F1F000007FDE0FFE0FFFFE1FF07FFFF3D
:10572800FE1F020007FFFFFFFFFFFFFFFFFFFFFF56
:10573800FE1F000007FFFFFFFFFFFFFFFFFFFFFF48
:10574800FF1FFF1FFFFFFFFFFFFFFFFFFFFFFFFF21
:10575800FFFFFFFFFFFFFFFFFFFFFFFFFFFFFFFF51
:10576800FFFFFFFFFFFFFFFFFFFFFFFFFFFFFFFF41
:10577800FFFFFFFFFFFFFFFFFFFFFFFFFFFFFFFF31
:10578800FFFFFFFFFFFFFFFFFFFFFFFFFFFFFFFF21
:10579800FFFF3FFFFFFFFFFFFFFFFFFFFFFFFFFFD1
:1057A800FFFF1FFFFFFFFFFFFFFFFFFFFFFFFFFFE1
:1057B800FFFFFFFFFFFFFFFFFFFFFFFFFFFFFFFFF1
:1057C800FFFFFFFFFFFFFFFFFFFFFFFFFFFFFFFFE1
:1057D800FFFFFFFFFFFFFFFFFFFFFFFFFFFFFFFFD1
:1057E800FFFFFFFFFFFFFFFFFFFFFFFFFFFFFFFFC1
:1057F800FFFFFFFFFFFFFFFFFFFFFFFFFFFFFFFFB1
:10580800FFFFFFFFFFFFFFFFFFFFFFFFFFFFFFFFA0
:10581800FFFFFFFFFFFFFFFFFFFFFFFFFFFFFFFF90
:10582800FFF800001FFFFFFFFFFFFFFFFFFFFFFF65
:10583800FFFFFFFF9FFFFFFFFFFFFFFFFFFFFFFFD0
:105848000007FFFFC00001C00000000000FFFFFFCD
:105858000007FFFFE00000C00000000000FFFFFF9E
:105868007FFFFFFFFFFFF7C00000000000FFFFFF02
:105878007FFFFFFFFFFFF70000000000001FFFFF92
:105888007FFFFFFFFFFFF70000000000001FFFFF82
:105898007FF800001FFFF70000000000001FFFFF57
:1058A8007FF800001FFFF70000000000001FFFFF47
:1058B800000800000000070000000000001FFFFFB4
:1058C8000000000000000700000003C0001FFFFFE9
:1058D8000000000000000700000007C0001FFFFFD5
:1058E8000000000000000700000007C0001FFFFFC5
:1058F800000000000000070000001818001F07FF44
:10590800000000000000070000001818401F07FFF3
:10591800000000000000070000001818001F07FF23
:10592800000000000000070000001806001807FF2C
:10593800000000000000070000001807001807FF1B
:105948000000000000F8030000001800000007FF36
:105958000000000000F8030000001800FFE007FF47
:105968000000000000F8030000001800FFC007FF57
:10597800000000000306030000001800000007FFF5
:10598800000000000707030000001800000007FFE0
:10599800000000000707070000001800000003FFD0
:1059A800000000000707FF000000E000000000FF03
:1059B800000000000707FF000000E000000000FFF3
:1059C8000000000000C00F000000E002000040FFDF
:1059D8000000000000E007000001E0030000E0FF15
:1059E8000000000000E007000000E0030000E0FF06
:1059F80000000000001F07000000E01F00C7E0FFD4
:105A080000000000001F07020000E01F00E7E0FFA1
:105A180000000000001F07000000E01F00C3C0FFD7
:105A2800000000000000FF000000E000000000FF90
:105A3800000000000000FF000000E000000000FF80
:105A4800000000000000EF000000E002020200FF7A
:105A580000000000000007000000E007070700FF43
:105A6800000000000000070000006007070700FFB3
:105A7800000000000000070000001807FFFF03FFF8
:105A8800000000000000070040001807FFFF07FFA4
:105A9800000000000000070000001803FFFF07FFD8
:105AA8000000000000003F000000070000003FFF6A
:105AB8000000000000003F000000070000003FFF5A
:105AC800000000000000FF000000007FFDFB3FFF1A
